{
  "contractName": "MBCPaymentSplitter",
  "abi": [
    {
      "inputs": [
        {
          "internalType": "address",
          "name": "_mbcAdmin",
          "type": "address"
        },
        {
          "internalType": "address",
          "name": "_d5artAdmin",
          "type": "address"
        },
        {
          "internalType": "address",
          "name": "_d5artsubAdmin",
          "type": "address"
        },
        {
          "internalType": "address",
          "name": "_jvWallet",
          "type": "address"
        },
        {
          "internalType": "address",
          "name": "_token",
          "type": "address"
        },
        {
          "internalType": "uint256",
          "name": "_basicPrice",
          "type": "uint256"
        },
        {
          "internalType": "uint256",
          "name": "_standardPrice",
          "type": "uint256"
        },
        {
          "internalType": "uint256",
          "name": "_premiumPrice",
          "type": "uint256"
        }
      ],
      "stateMutability": "nonpayable",
      "type": "constructor"
    },
    {
      "anonymous": false,
      "inputs": [
        {
          "indexed": false,
          "internalType": "address",
          "name": "to",
          "type": "address"
        },
        {
          "indexed": false,
          "internalType": "uint256",
          "name": "amount",
          "type": "uint256"
        }
      ],
      "name": "CommissionPaid",
      "type": "event"
    },
    {
      "anonymous": false,
      "inputs": [
        {
          "indexed": false,
          "internalType": "address",
          "name": "newAdmin",
          "type": "address"
        }
      ],
      "name": "D5artAdminUpdated",
      "type": "event"
    },
    {
      "anonymous": false,
      "inputs": [
        {
          "indexed": false,
          "internalType": "address",
          "name": "new_subAdmin",
          "type": "address"
        }
      ],
      "name": "D5art_subAdminUpdated",
      "type": "event"
    },
    {
      "anonymous": false,
      "inputs": [
        {
          "indexed": false,
          "internalType": "address",
          "name": "to",
          "type": "address"
        },
        {
          "indexed": false,
          "internalType": "uint256",
          "name": "amount",
          "type": "uint256"
        }
      ],
      "name": "FundsReleased",
      "type": "event"
    },
    {
      "anonymous": false,
      "inputs": [
        {
          "indexed": false,
          "internalType": "address",
          "name": "newWallet",
          "type": "address"
        }
      ],
      "name": "JvWalletUpdated",
      "type": "event"
    },
    {
      "anonymous": false,
      "inputs": [
        {
          "indexed": false,
          "internalType": "address",
          "name": "newAdmin",
          "type": "address"
        }
      ],
      "name": "MbcAdminUpdated",
      "type": "event"
    },
    {
      "anonymous": false,
      "inputs": [
        {
          "indexed": false,
          "internalType": "address",
          "name": "payer",
          "type": "address"
        },
        {
          "indexed": false,
          "internalType": "uint256",
          "name": "amount",
          "type": "uint256"
        },
        {
          "indexed": false,
          "internalType": "enum MBCPaymentSplitter.PlanType",
          "name": "plan",
          "type": "uint8"
        }
      ],
      "name": "PaymentReceived",
      "type": "event"
    },
    {
      "anonymous": false,
      "inputs": [
        {
          "indexed": false,
          "internalType": "enum MBCPaymentSplitter.PlanType",
          "name": "plan",
          "type": "uint8"
        },
        {
          "indexed": false,
          "internalType": "uint256",
          "name": "newOriginalPrice",
          "type": "uint256"
        },
        {
          "indexed": false,
          "internalType": "uint256",
          "name": "newConcessionPrice",
          "type": "uint256"
        }
      ],
      "name": "PriceUpdated",
      "type": "event"
    },
    {
      "inputs": [],
      "name": "BONUS_PERCENT",
      "outputs": [
        {
          "internalType": "uint256",
          "name": "",
          "type": "uint256"
        }
      ],
      "stateMutability": "view",
      "type": "function",
      "constant": true
    },
    {
      "inputs": [],
      "name": "D5ART_ADMIN",
      "outputs": [
        {
          "internalType": "address",
          "name": "",
          "type": "address"
        }
      ],
      "stateMutability": "view",
      "type": "function",
      "constant": true
    },
    {
      "inputs": [],
      "name": "D5ART_SUBADMIN",
      "outputs": [
        {
          "internalType": "address",
          "name": "",
          "type": "address"
        }
      ],
      "stateMutability": "view",
      "type": "function",
      "constant": true
    },
    {
      "inputs": [],
      "name": "JV_SPLIT_PERCENT",
      "outputs": [
        {
          "internalType": "uint256",
          "name": "",
          "type": "uint256"
        }
      ],
      "stateMutability": "view",
      "type": "function",
      "constant": true
    },
    {
      "inputs": [],
      "name": "JV_WALLET",
      "outputs": [
        {
          "internalType": "address",
          "name": "",
          "type": "address"
        }
      ],
      "stateMutability": "view",
      "type": "function",
      "constant": true
    },
    {
      "inputs": [],
      "name": "MBC_ADMIN",
      "outputs": [
        {
          "internalType": "address",
          "name": "",
          "type": "address"
        }
      ],
      "stateMutability": "view",
      "type": "function",
      "constant": true
    },
    {
      "inputs": [],
      "name": "PRECISION",
      "outputs": [
        {
          "internalType": "uint256",
          "name": "",
          "type": "uint256"
        }
      ],
      "stateMutability": "view",
      "type": "function",
      "constant": true
    },
    {
      "inputs": [
        {
          "internalType": "enum MBCPaymentSplitter.PlanType",
          "name": "",
          "type": "uint8"
        }
      ],
      "name": "concessionPrices",
      "outputs": [
        {
          "internalType": "uint256",
          "name": "",
          "type": "uint256"
        }
      ],
      "stateMutability": "view",
      "type": "function",
      "constant": true
    },
    {
      "inputs": [],
      "name": "d5ar_AdmintApproved",
      "outputs": [
        {
          "internalType": "bool",
          "name": "",
          "type": "bool"
        }
      ],
      "stateMutability": "view",
      "type": "function",
      "constant": true
    },
    {
      "inputs": [],
      "name": "d5art_subAdminApproved",
      "outputs": [
        {
          "internalType": "bool",
          "name": "",
          "type": "bool"
        }
      ],
      "stateMutability": "view",
      "type": "function",
      "constant": true
    },
    {
      "inputs": [
        {
          "internalType": "enum MBCPaymentSplitter.PlanType",
          "name": "",
          "type": "uint8"
        }
      ],
      "name": "originalPrices",
      "outputs": [
        {
          "internalType": "uint256",
          "name": "",
          "type": "uint256"
        }
      ],
      "stateMutability": "view",
      "type": "function",
      "constant": true
    },
    {
      "inputs": [],
      "name": "paymentToken",
      "outputs": [
        {
          "internalType": "address",
          "name": "",
          "type": "address"
        }
      ],
      "stateMutability": "view",
      "type": "function",
      "constant": true
    },
    {
      "inputs": [
        {
          "internalType": "enum MBCPaymentSplitter.PlanType",
          "name": "plan",
          "type": "uint8"
        }
      ],
      "name": "makePayment",
      "outputs": [],
      "stateMutability": "nonpayable",
      "type": "function"
    },
    {
      "inputs": [],
      "name": "approveRelease",
      "outputs": [],
      "stateMutability": "nonpayable",
      "type": "function"
    },
    {
      "inputs": [
        {
          "internalType": "address",
          "name": "newAdmin",
          "type": "address"
        }
      ],
      "name": "updateMbcAdmin",
      "outputs": [],
      "stateMutability": "nonpayable",
      "type": "function"
    },
    {
      "inputs": [
        {
          "internalType": "address",
          "name": "newAdmin",
          "type": "address"
        }
      ],
      "name": "updateD5artAdmin",
      "outputs": [],
      "stateMutability": "nonpayable",
      "type": "function"
    },
    {
      "inputs": [
        {
          "internalType": "address",
          "name": "new_subAdmin",
          "type": "address"
        }
      ],
      "name": "updateD5art_subAdmin",
      "outputs": [],
      "stateMutability": "nonpayable",
      "type": "function"
    },
    {
      "inputs": [
        {
          "internalType": "address",
          "name": "newWallet",
          "type": "address"
        }
      ],
      "name": "updateJvWallet",
      "outputs": [],
      "stateMutability": "nonpayable",
      "type": "function"
    },
    {
      "inputs": [
        {
          "internalType": "address",
          "name": "newToken",
          "type": "address"
        }
      ],
      "name": "updatePaymentToken",
      "outputs": [],
      "stateMutability": "nonpayable",
      "type": "function"
    },
    {
      "inputs": [
        {
          "internalType": "enum MBCPaymentSplitter.PlanType",
          "name": "plan",
          "type": "uint8"
        },
        {
          "internalType": "uint256",
          "name": "newPrice",
          "type": "uint256"
        }
      ],
      "name": "updatePrice",
      "outputs": [],
      "stateMutability": "nonpayable",
      "type": "function"
    },
    {
      "inputs": [],
      "name": "getContractBalance",
      "outputs": [
        {
          "internalType": "uint256",
          "name": "",
          "type": "uint256"
        }
      ],
      "stateMutability": "view",
      "type": "function",
      "constant": true
    }
  ],
  "bytecode": "0x60806040523480156200001157600080fd5b506040516200179b3803806200179b833981016040819052620000349162000277565b6001600160a01b038816158015906200005557506001600160a01b03871615155b80156200006a57506001600160a01b03851615155b620000af5760405162461bcd60e51b8152602060048201526011602482015270496e76616c69642061646472657373657360781b604482015260640160405180910390fd5b600080546001600160a01b03199081166001600160a01b038b81169190911783556001805483168b83161790556002805483168a8316179055600380548316898316179055600480549092169087161790556200010d908462000135565b6200011a60018362000135565b6200012760028262000135565b5050505050505050620003c0565b80600560008460028111156200014f576200014f62000304565b600281111562000163576200016362000304565b8152602081019190915260400160002055620f424062000187620186a08262000330565b6200019390836200034c565b6200019f919062000366565b60066000846002811115620001b857620001b862000304565b6002811115620001cc57620001cc62000304565b8152602001908152602001600020819055507f0632454824820b4b1fd6f29fdc288d3b437e7ae937523b584eed6967b39e75958282600660008660028111156200021a576200021a62000304565b60028111156200022e576200022e62000304565b8152602001908152602001600020546040516200024e9392919062000389565b60405180910390a15050565b80516001600160a01b03811681146200027257600080fd5b919050565b600080600080600080600080610100898b0312156200029557600080fd5b620002a0896200025a565b9750620002b060208a016200025a565b9650620002c060408a016200025a565b9550620002d060608a016200025a565b9450620002e060808a016200025a565b935060a0890151925060c0890151915060e089015190509295985092959890939650565b634e487b7160e01b600052602160045260246000fd5b634e487b7160e01b600052601160045260246000fd5b818103818111156200034657620003466200031a565b92915050565b80820281158282048414176200034657620003466200031a565b6000826200038457634e487b7160e01b600052601260045260246000fd5b500490565b6060810160038510620003ac57634e487b7160e01b600052602160045260246000fd5b938152602081019290925260409091015290565b6113cb80620003d06000396000f3fe608060405234801561001057600080fd5b50600436106101765760003560e01c8063a5b68a62116100d8578063da267bc81161008c578063e97bef0e11610066578063e97bef0e146102e3578063f6816b7614610303578063f8aa6ba21461031657600080fd5b8063da267bc8146102b3578063db9d1e41146102bd578063de569501146102d057600080fd5b8063c6eb5980116100bd578063c6eb59801461026e578063c8a27b051461028e578063d4b03f5f146102a157600080fd5b8063a5b68a6214610251578063aaf5eb681461026457600080fd5b80634ccf1b341161012f5780636f9fb98a116101145780636f9fb98a1461021e5780637cfd4a9214610234578063a12e2dd61461024757600080fd5b80634ccf1b34146101ee5780634d589e801461020157600080fd5b80631d581402116101605780631d581402146101a35780631e31a6dd146101b65780633013ce29146101be57600080fd5b80627fa4f01461017b578063135b077114610190575b600080fd5b61018e6101893660046111fa565b610329565b005b61018e61019e366004611224565b610396565b61018e6101b1366004611224565b6104a8565b61018e6105b3565b6004546101d1906001600160a01b031681565b6040516001600160a01b0390911681526020015b60405180910390f35b61018e6101fc366004611224565b6106cb565b60075461020e9060ff1681565b60405190151581526020016101e5565b6102266107aa565b6040519081526020016101e5565b6000546101d1906001600160a01b031681565b61022662030d4081565b6003546101d1906001600160a01b031681565b610226620f424081565b61022661027c366004611254565b60056020526000908152604090205481565b61018e61029c366004611254565b61083a565b60075461020e90610100900460ff1681565b610226620186a081565b61018e6102cb366004611224565b610cb0565b61018e6102de366004611224565b610dbb565b6102266102f1366004611254565b60066020526000908152604090205481565b6001546101d1906001600160a01b031681565b6002546101d1906001600160a01b031681565b6001546001600160a01b031633146103885760405162461bcd60e51b815260206004820152601860248201527f4f6e6c792044354172742061646d696e20616c6c6f776564000000000000000060448201526064015b60405180910390fd5b6103928282610ec6565b5050565b6001546001600160a01b031633146103f05760405162461bcd60e51b815260206004820152601860248201527f4f6e6c792044354172742061646d696e20616c6c6f7765640000000000000000604482015260640161037f565b6001600160a01b0381166104465760405162461bcd60e51b815260206004820152600f60248201527f496e76616c696420616464726573730000000000000000000000000000000000604482015260640161037f565b6002805473ffffffffffffffffffffffffffffffffffffffff19166001600160a01b0383169081179091556040519081527ffa3d6b84ed4777f63a38853dcd99d75d5baf7227823e4f0b8f9b4d49d2ed429d906020015b60405180910390a150565b6001546001600160a01b031633146105025760405162461bcd60e51b815260206004820152601860248201527f4f6e6c792044354172742061646d696e20616c6c6f7765640000000000000000604482015260640161037f565b6001600160a01b0381166105585760405162461bcd60e51b815260206004820152600f60248201527f496e76616c696420616464726573730000000000000000000000000000000000604482015260640161037f565b6001805473ffffffffffffffffffffffffffffffffffffffff19166001600160a01b0383169081179091556040519081527fa15f1ff3a51ba5c624d71f26f2fbd15b1ee0f313cd9f1c30be31c698935d65ea9060200161049d565b6002546001600160a01b03163314806105d657506001546001600160a01b031633145b6106225760405162461bcd60e51b815260206004820152600c60248201527f556e617574686f72697a65640000000000000000000000000000000000000000604482015260640161037f565b6002546001600160a01b0316330361066457600780547fffffffffffffffffffffffffffffffffffffffffffffffffffffffffffffff001660011790556106a3565b6001546001600160a01b031633036106a357600780547fffffffffffffffffffffffffffffffffffffffffffffffffffffffffffff00ff166101001790555b60075460ff1680156106bc5750600754610100900460ff165b156106c9576106c9610fd1565b565b6000546001600160a01b031633146107255760405162461bcd60e51b815260206004820152601660248201527f4f6e6c79204d42432061646d696e20616c6c6f77656400000000000000000000604482015260640161037f565b6001600160a01b03811661077b5760405162461bcd60e51b815260206004820152601560248201527f496e76616c696420746f6b656e20616464726573730000000000000000000000604482015260640161037f565b6004805473ffffffffffffffffffffffffffffffffffffffff19166001600160a01b0392909216919091179055565b600480546040517f70a0823100000000000000000000000000000000000000000000000000000000815230928101929092526000916001600160a01b03909116906370a0823190602401602060405180830381865afa158015610811573d6000803e3d6000fd5b505050506040513d601f19601f82011682018060405250810190610835919061126f565b905090565b60006006600083600281111561085257610852611288565b600281111561086357610863611288565b8152602001908152602001600020549050600081116108c45760405162461bcd60e51b815260206004820152600d60248201527f496e76616c696420707269636500000000000000000000000000000000000000604482015260640161037f565b600480546040517f23b872dd0000000000000000000000000000000000000000000000000000000081523392810192909252306024830152604482018390526001600160a01b0316906323b872dd906064016020604051808303816000875af1158015610935573d6000803e3d6000fd5b505050506040513d601f19601f82011682018060405250810190610959919061129e565b6109a55760405162461bcd60e51b815260206004820152601560248201527f546f6b656e207472616e73666572206661696c65640000000000000000000000604482015260640161037f565b7f7798236973338390ade9f2f68e3a8a56f1c35f2be34ce43073a8f1f5def4236f3382846040516109d8939291906112e2565b60405180910390a16000620f424062030d4060056000866002811115610a0057610a00611288565b6002811115610a1157610a11611288565b815260200190815260200160002054610a2a9190611324565b610a349190611341565b90506000620f4240620186a060056000876002811115610a5657610a56611288565b6002811115610a6757610a67611288565b815260200190815260200160002054610a809190611324565b610a8a9190611341565b6004805460035460405163a9059cbb60e01b81526001600160a01b039182169381019390935260248301869052929350919091169063a9059cbb906044016020604051808303816000875af1158015610ae7573d6000803e3d6000fd5b505050506040513d601f19601f82011682018060405250810190610b0b919061129e565b610b575760405162461bcd60e51b815260206004820152601260248201527f4a56207472616e73666572206661696c65640000000000000000000000000000604482015260640161037f565b600354604080516001600160a01b039092168252602082018490527f885e6f6235626292940f78c947a331f4c7c1d7f50a48b38092cf546bc9c7907a910160405180910390a16004805460005460405163a9059cbb60e01b81526001600160a01b039182169381019390935260248301849052169063a9059cbb906044016020604051808303816000875af1158015610bf4573d6000803e3d6000fd5b505050506040513d601f19601f82011682018060405250810190610c18919061129e565b610c645760405162461bcd60e51b815260206004820152601560248201527f426f6e7573207472616e73666572206661696c65640000000000000000000000604482015260640161037f565b600054604080516001600160a01b039092168252602082018390527f885e6f6235626292940f78c947a331f4c7c1d7f50a48b38092cf546bc9c7907a910160405180910390a150505050565b6000546001600160a01b03163314610d0a5760405162461bcd60e51b815260206004820152601660248201527f4f6e6c79204d42432061646d696e20616c6c6f77656400000000000000000000604482015260640161037f565b6001600160a01b038116610d605760405162461bcd60e51b815260206004820152600f60248201527f496e76616c696420616464726573730000000000000000000000000000000000604482015260640161037f565b6000805473ffffffffffffffffffffffffffffffffffffffff19166001600160a01b0383169081179091556040519081527fa3c698d36c3a412ab623d49aa22d6752329f35ce748bd2cd2d257e3add0f6cba9060200161049d565b6000546001600160a01b03163314610e155760405162461bcd60e51b815260206004820152601660248201527f4f6e6c79204d42432061646d696e20616c6c6f77656400000000000000000000604482015260640161037f565b6001600160a01b038116610e6b5760405162461bcd60e51b815260206004820152600f60248201527f496e76616c696420616464726573730000000000000000000000000000000000604482015260640161037f565b6003805473ffffffffffffffffffffffffffffffffffffffff19166001600160a01b0383169081179091556040519081527f34c4797eee453c4a55bfbebdaa19d9a01cf7880724a6e1aa0f20e931e6d71b389060200161049d565b8060056000846002811115610edd57610edd611288565b6002811115610eee57610eee611288565b8152602081019190915260400160002055620f4240610f10620186a082611363565b610f1a9083611324565b610f249190611341565b60066000846002811115610f3a57610f3a611288565b6002811115610f4b57610f4b611288565b8152602001908152602001600020819055507f0632454824820b4b1fd6f29fdc288d3b437e7ae937523b584eed6967b39e7595828260066000866002811115610f9657610f96611288565b6002811115610fa757610fa7611288565b815260200190815260200160002054604051610fc593929190611376565b60405180910390a15050565b600480546040517f70a0823100000000000000000000000000000000000000000000000000000000815230928101929092526000916001600160a01b03909116906370a0823190602401602060405180830381865afa158015611038573d6000803e3d6000fd5b505050506040513d601f19601f8201168201806040525081019061105c919061126f565b9050600081116110ae5760405162461bcd60e51b815260206004820152601360248201527f4e6f2066756e647320746f2072656c6561736500000000000000000000000000604482015260640161037f565b6004805460015460405163a9059cbb60e01b81526001600160a01b039182169381019390935260248301849052169063a9059cbb906044016020604051808303816000875af1158015611105573d6000803e3d6000fd5b505050506040513d601f19601f82011682018060405250810190611129919061129e565b6111755760405162461bcd60e51b815260206004820152601560248201527f546f6b656e207472616e73666572206661696c65640000000000000000000000604482015260640161037f565b600154604080516001600160a01b039092168252602082018390527f221c08a06b07a64803b3787861a3f276212fcccb51c2e6234077a9b8cb13047a910160405180910390a150600780547fffffffffffffffffffffffffffffffffffffffffffffffffffffffffffff0000169055565b8035600381106111f557600080fd5b919050565b6000806040838503121561120d57600080fd5b611216836111e6565b946020939093013593505050565b60006020828403121561123657600080fd5b81356001600160a01b038116811461124d57600080fd5b9392505050565b60006020828403121561126657600080fd5b61124d826111e6565b60006020828403121561128157600080fd5b5051919050565b634e487b7160e01b600052602160045260246000fd5b6000602082840312156112b057600080fd5b8151801515811461124d57600080fd5b600381106112de57634e487b7160e01b600052602160045260246000fd5b9052565b6001600160a01b0384168152602081018390526060810161130660408301846112c0565b949350505050565b634e487b7160e01b600052601160045260246000fd5b808202811582820484141761133b5761133b61130e565b92915050565b60008261135e57634e487b7160e01b600052601260045260246000fd5b500490565b8181038181111561133b5761133b61130e565b6060810161138482866112c0565b60208201939093526040015291905056fea26469706673582212209c1420924939f86c55f5b827ff21f215354b262532caf06a8b61dcd698e33e6d64736f6c63430008160033",
  "immutableReferences": {},
  "source": "// SPDX-License-Identifier: MIT\r\npragma solidity ^0.8.0;\r\n\r\nimport \"@openzeppelin/contracts/token/ERC20/IERC20.sol\";\r\n\r\ncontract MBCPaymentSplitter {\r\n    uint256 public constant PRECISION = 1e6; // Precision factor for \"floats\"\r\n    \r\n    address public MBC_ADMIN;\r\n    address public D5ART_ADMIN;\r\n    address public D5ART_SUBADMIN;\r\n    address public JV_WALLET;\r\n    address public paymentToken;\r\n\r\n    // Percentages expressed in fixed-point format (e.g., 20% = 0.2 * 1e6 = 200000)\r\n    uint256 public constant JV_SPLIT_PERCENT = 200000; // 20% = 0.2\r\n    uint256 public constant BONUS_PERCENT = 100000;    // 10% = 0.1\r\n\r\n    enum PlanType { BASIC, STANDARD, PREMIUM }\r\n\r\n    mapping(PlanType => uint256) public originalPrices;\r\n    mapping(PlanType => uint256) public concessionPrices;\r\n\r\n    bool public d5art_subAdminApproved;\r\n    bool public d5ar_AdmintApproved;\r\n\r\n    event PaymentReceived(address payer, uint256 amount, PlanType plan);\r\n    event CommissionPaid(address to, uint256 amount);\r\n    event FundsReleased(address to, uint256 amount);\r\n    event MbcAdminUpdated(address newAdmin);\r\n    event D5artAdminUpdated(address newAdmin);\r\n    event D5art_subAdminUpdated(address new_subAdmin);\r\n    event JvWalletUpdated(address newWallet);\r\n    event PriceUpdated(PlanType plan, uint256 newOriginalPrice, uint256 newConcessionPrice);\r\n\r\n    modifier onlyMBCAdmin() {\r\n        require(msg.sender == MBC_ADMIN, \"Only MBC admin allowed\");\r\n        _;\r\n    }\r\n\r\n    modifier onlyD5ArtAdmin() {\r\n        require(msg.sender == D5ART_ADMIN, \"Only D5Art admin allowed\");\r\n        _;\r\n    }\r\n\r\n    modifier onlyParties() {\r\n        require(msg.sender == D5ART_SUBADMIN || msg.sender == D5ART_ADMIN, \"Unauthorized\");\r\n        _; \r\n    }\r\n\r\n    constructor(\r\n        address _mbcAdmin,\r\n        address _d5artAdmin,\r\n        address _d5artsubAdmin,\r\n        address _jvWallet, \r\n        address _token, \r\n        uint256 _basicPrice,\r\n        uint256 _standardPrice,\r\n        uint256 _premiumPrice\r\n    ) {\r\n        require(_mbcAdmin != address(0) && _d5artAdmin != address(0) && _jvWallet != address(0), \"Invalid addresses\");\r\n        MBC_ADMIN = _mbcAdmin;\r\n        D5ART_ADMIN = _d5artAdmin;\r\n        D5ART_SUBADMIN = _d5artsubAdmin;\r\n        JV_WALLET = _jvWallet;\r\n        paymentToken = _token;\r\n\r\n        _setPrice(PlanType.BASIC, _basicPrice);\r\n        _setPrice(PlanType.STANDARD, _standardPrice);\r\n        _setPrice(PlanType.PREMIUM, _premiumPrice);\r\n    }\r\n\r\n    function makePayment(PlanType plan) external {\r\n    uint256 price = concessionPrices[plan];\r\n    require(price > 0, \"Invalid price\");\r\n\r\n    // User must approve this contract to spend tokens before calling this\r\n    require(IERC20(paymentToken).transferFrom(msg.sender, address(this), price), \"Token transfer failed\");\r\n\r\n    emit PaymentReceived(msg.sender, price, plan);\r\n\r\n    uint256 jvSplit = (originalPrices[plan] * JV_SPLIT_PERCENT) / PRECISION;\r\n    uint256 bonusSplit = (originalPrices[plan] * BONUS_PERCENT) / PRECISION;\r\n\r\n    require(IERC20(paymentToken).transfer(JV_WALLET, jvSplit), \"JV transfer failed\");\r\n    emit CommissionPaid(JV_WALLET, jvSplit);\r\n\r\n    require(IERC20(paymentToken).transfer(MBC_ADMIN, bonusSplit), \"Bonus transfer failed\");\r\n    emit CommissionPaid(MBC_ADMIN, bonusSplit);\r\n}\r\n\r\n\r\n    function approveRelease() external onlyParties {\r\n        if (msg.sender == D5ART_SUBADMIN) {\r\n            d5art_subAdminApproved = true;\r\n        } else if (msg.sender == D5ART_ADMIN) {\r\n            d5ar_AdmintApproved = true;\r\n        }\r\n        \r\n        if (d5art_subAdminApproved && d5ar_AdmintApproved) {\r\n            _releaseFunds();\r\n        }\r\n    }\r\n\r\n    function _releaseFunds() private {\r\n    uint256 tokenBalance = IERC20(paymentToken).balanceOf(address(this));\r\n    require(tokenBalance > 0, \"No funds to release\");\r\n\r\n    require(IERC20(paymentToken).transfer(D5ART_ADMIN, tokenBalance), \"Token transfer failed\");\r\n\r\n    emit FundsReleased(D5ART_ADMIN, tokenBalance);\r\n\r\n    d5art_subAdminApproved = false;\r\n    d5ar_AdmintApproved = false;\r\n}\r\n\r\n\r\n    // --- Admin Controls ---\r\n\r\n    function updateMbcAdmin(address newAdmin) external onlyMBCAdmin {\r\n        require(newAdmin != address(0), \"Invalid address\");\r\n        MBC_ADMIN = newAdmin;\r\n        emit MbcAdminUpdated(newAdmin);\r\n    }\r\n\r\n    function updateD5artAdmin(address newAdmin) external onlyD5ArtAdmin {\r\n        require(newAdmin != address(0), \"Invalid address\");\r\n        D5ART_ADMIN = newAdmin;\r\n        emit D5artAdminUpdated(newAdmin);\r\n    }\r\n\r\n    function updateD5art_subAdmin( address new_subAdmin) external onlyD5ArtAdmin {\r\n        require(new_subAdmin != address(0), \"Invalid address\");\r\n        D5ART_SUBADMIN = new_subAdmin;\r\n        emit D5art_subAdminUpdated(new_subAdmin);\r\n    }\r\n\r\n    function updateJvWallet(address newWallet) external onlyMBCAdmin {\r\n        require(newWallet != address(0), \"Invalid address\");\r\n        JV_WALLET = newWallet;\r\n        emit JvWalletUpdated(newWallet);\r\n    }\r\n\r\n    function updatePaymentToken(address newToken) external onlyMBCAdmin {\r\n    require(newToken != address(0), \"Invalid token address\");\r\n    paymentToken = newToken;\r\n}\r\n\r\n\r\n    function updatePrice(PlanType plan, uint256 newPrice) external onlyD5ArtAdmin {\r\n        _setPrice(plan, newPrice);\r\n    }\r\n\r\n    function _setPrice(PlanType plan, uint256 price) internal {\r\n        originalPrices[plan] = price;\r\n        concessionPrices[plan] = (price * (PRECISION - BONUS_PERCENT)) / PRECISION;\r\n        emit PriceUpdated(plan, price, concessionPrices[plan]);\r\n    }\r\n\r\n    // --- Utilities ---\r\n    function getContractBalance() public view returns (uint256) {\r\n    return IERC20(paymentToken).balanceOf(address(this));\r\n}\r\n\r\n\r\n\r\n    // fallback() external payable {\r\n    //     revert(\"Direct transfers not allowed\");\r\n    // }\r\n\r\n    // receive() external payable {\r\n    //     revert(\"Please use makePayment function\");\r\n    // }\r\n}\r\n",
  "sourcePath": "D:\\MBCxD5art\\contracts\\MBCpaymentSplitter.sol",
  "compiler": {
    "name": "solc",
    "version": "0.8.22+commit.4fc1097e.Emscripten.clang"
  },
  "schemaVersion": "3.4.16",
  "updatedAt": "2025-07-10T07:09:49.174Z",
  "networkType": "ethereum",
  "devdoc": {
    "kind": "dev",
    "methods": {},
    "version": 1
  },
  "userdoc": {
    "kind": "user",
    "methods": {},
    "version": 1
  }
}