{
  "contractName": "MBCPaymentSplitter",
  "abi": [
    {
      "inputs": [
        {
          "internalType": "address",
          "name": "_mbcAdmin",
          "type": "address"
        },
        {
          "internalType": "address",
          "name": "_d5artAdmin",
          "type": "address"
        },
        {
          "internalType": "address",
          "name": "_jvWallet",
          "type": "address"
        },
        {
          "internalType": "uint256",
          "name": "_basicPrice",
          "type": "uint256"
        },
        {
          "internalType": "uint256",
          "name": "_standardPrice",
          "type": "uint256"
        },
        {
          "internalType": "uint256",
          "name": "_premiumPrice",
          "type": "uint256"
        }
      ],
      "stateMutability": "nonpayable",
      "type": "constructor"
    },
    {
      "anonymous": false,
      "inputs": [
        {
          "indexed": false,
          "internalType": "address",
          "name": "to",
          "type": "address"
        },
        {
          "indexed": false,
          "internalType": "uint256",
          "name": "amount",
          "type": "uint256"
        }
      ],
      "name": "CommissionPaid",
      "type": "event"
    },
    {
      "anonymous": false,
      "inputs": [
        {
          "indexed": false,
          "internalType": "address",
          "name": "newAdmin",
          "type": "address"
        }
      ],
      "name": "D5artAdminUpdated",
      "type": "event"
    },
    {
      "anonymous": false,
      "inputs": [
        {
          "indexed": false,
          "internalType": "address",
          "name": "to",
          "type": "address"
        },
        {
          "indexed": false,
          "internalType": "uint256",
          "name": "amount",
          "type": "uint256"
        }
      ],
      "name": "FundsReleased",
      "type": "event"
    },
    {
      "anonymous": false,
      "inputs": [
        {
          "indexed": false,
          "internalType": "address",
          "name": "newWallet",
          "type": "address"
        }
      ],
      "name": "JvWalletUpdated",
      "type": "event"
    },
    {
      "anonymous": false,
      "inputs": [
        {
          "indexed": false,
          "internalType": "address",
          "name": "newAdmin",
          "type": "address"
        }
      ],
      "name": "MbcAdminUpdated",
      "type": "event"
    },
    {
      "anonymous": false,
      "inputs": [
        {
          "indexed": false,
          "internalType": "address",
          "name": "payer",
          "type": "address"
        },
        {
          "indexed": false,
          "internalType": "uint256",
          "name": "amount",
          "type": "uint256"
        },
        {
          "indexed": false,
          "internalType": "enum MBCPaymentSplitter.PlanType",
          "name": "plan",
          "type": "uint8"
        }
      ],
      "name": "PaymentReceived",
      "type": "event"
    },
    {
      "anonymous": false,
      "inputs": [
        {
          "indexed": false,
          "internalType": "enum MBCPaymentSplitter.PlanType",
          "name": "plan",
          "type": "uint8"
        },
        {
          "indexed": false,
          "internalType": "uint256",
          "name": "newOriginalPrice",
          "type": "uint256"
        },
        {
          "indexed": false,
          "internalType": "uint256",
          "name": "newConcessionPrice",
          "type": "uint256"
        }
      ],
      "name": "PriceUpdated",
      "type": "event"
    },
    {
      "stateMutability": "payable",
      "type": "fallback"
    },
    {
      "inputs": [],
      "name": "BONUS_PERCENT",
      "outputs": [
        {
          "internalType": "uint256",
          "name": "",
          "type": "uint256"
        }
      ],
      "stateMutability": "view",
      "type": "function"
    },
    {
      "inputs": [],
      "name": "D5ART_ADMIN",
      "outputs": [
        {
          "internalType": "address",
          "name": "",
          "type": "address"
        }
      ],
      "stateMutability": "view",
      "type": "function"
    },
    {
      "inputs": [],
      "name": "JV_SPLIT_PERCENT",
      "outputs": [
        {
          "internalType": "uint256",
          "name": "",
          "type": "uint256"
        }
      ],
      "stateMutability": "view",
      "type": "function"
    },
    {
      "inputs": [],
      "name": "JV_WALLET",
      "outputs": [
        {
          "internalType": "address",
          "name": "",
          "type": "address"
        }
      ],
      "stateMutability": "view",
      "type": "function"
    },
    {
      "inputs": [],
      "name": "MBC_ADMIN",
      "outputs": [
        {
          "internalType": "address",
          "name": "",
          "type": "address"
        }
      ],
      "stateMutability": "view",
      "type": "function"
    },
    {
      "inputs": [
        {
          "internalType": "enum MBCPaymentSplitter.PlanType",
          "name": "",
          "type": "uint8"
        }
      ],
      "name": "concessionPrices",
      "outputs": [
        {
          "internalType": "uint256",
          "name": "",
          "type": "uint256"
        }
      ],
      "stateMutability": "view",
      "type": "function"
    },
    {
      "inputs": [],
      "name": "d5artApproved",
      "outputs": [
        {
          "internalType": "bool",
          "name": "",
          "type": "bool"
        }
      ],
      "stateMutability": "view",
      "type": "function"
    },
    {
      "inputs": [],
      "name": "mbcApproved",
      "outputs": [
        {
          "internalType": "bool",
          "name": "",
          "type": "bool"
        }
      ],
      "stateMutability": "view",
      "type": "function"
    },
    {
      "inputs": [
        {
          "internalType": "enum MBCPaymentSplitter.PlanType",
          "name": "",
          "type": "uint8"
        }
      ],
      "name": "originalPrices",
      "outputs": [
        {
          "internalType": "uint256",
          "name": "",
          "type": "uint256"
        }
      ],
      "stateMutability": "view",
      "type": "function"
    },
    {
      "stateMutability": "payable",
      "type": "receive"
    },
    {
      "inputs": [
        {
          "internalType": "enum MBCPaymentSplitter.PlanType",
          "name": "plan",
          "type": "uint8"
        }
      ],
      "name": "makePayment",
      "outputs": [],
      "stateMutability": "payable",
      "type": "function"
    },
    {
      "inputs": [],
      "name": "approveRelease",
      "outputs": [],
      "stateMutability": "nonpayable",
      "type": "function"
    },
    {
      "inputs": [
        {
          "internalType": "address",
          "name": "newAdmin",
          "type": "address"
        }
      ],
      "name": "updateMbcAdmin",
      "outputs": [],
      "stateMutability": "nonpayable",
      "type": "function"
    },
    {
      "inputs": [
        {
          "internalType": "address",
          "name": "newAdmin",
          "type": "address"
        }
      ],
      "name": "updateD5artAdmin",
      "outputs": [],
      "stateMutability": "nonpayable",
      "type": "function"
    },
    {
      "inputs": [
        {
          "internalType": "address",
          "name": "newWallet",
          "type": "address"
        }
      ],
      "name": "updateJvWallet",
      "outputs": [],
      "stateMutability": "nonpayable",
      "type": "function"
    },
    {
      "inputs": [
        {
          "internalType": "enum MBCPaymentSplitter.PlanType",
          "name": "plan",
          "type": "uint8"
        },
        {
          "internalType": "uint256",
          "name": "newPrice",
          "type": "uint256"
        }
      ],
      "name": "updatePrice",
      "outputs": [],
      "stateMutability": "nonpayable",
      "type": "function"
    },
    {
      "inputs": [],
      "name": "getContractBalance",
      "outputs": [
        {
          "internalType": "uint256",
          "name": "",
          "type": "uint256"
        }
      ],
      "stateMutability": "view",
      "type": "function"
    },
    {
      "inputs": [
        {
          "internalType": "address",
          "name": "_address",
          "type": "address"
        }
      ],
      "name": "checkBalance",
      "outputs": [
        {
          "internalType": "uint256",
          "name": "",
          "type": "uint256"
        }
      ],
      "stateMutability": "view",
      "type": "function"
    }
  ],
  "bytecode": "0x608060405234801562000010575f80fd5b506040516200113538038062001135833981016040819052620000339162000243565b6001600160a01b038616158015906200005457506001600160a01b03851615155b80156200006957506001600160a01b03841615155b620000ae5760405162461bcd60e51b8152602060048201526011602482015270496e76616c69642061646472657373657360781b604482015260640160405180910390fd5b5f80546001600160a01b038089166001600160a01b0319928316178355600180548983169084161790556002805491881691909216179055620000f2908462000118565b620000ff60018362000118565b6200010c60028262000118565b50505050505062000338565b8060035f846002811115620001315762000131620002a5565b6002811115620001455762000145620002a5565b815260208101919091526040015f205560646200016482605a620002b9565b620001709190620002e3565b60045f846002811115620001885762000188620002a5565b60028111156200019c576200019c620002a5565b81526020019081526020015f20819055507f0632454824820b4b1fd6f29fdc288d3b437e7ae937523b584eed6967b39e7595828260045f866002811115620001e857620001e8620002a5565b6002811115620001fc57620001fc620002a5565b81526020019081526020015f20546040516200021b9392919062000303565b60405180910390a15050565b80516001600160a01b03811681146200023e575f80fd5b919050565b5f805f805f8060c0878903121562000259575f80fd5b620002648762000227565b9550620002746020880162000227565b9450620002846040880162000227565b9350606087015192506080870151915060a087015190509295509295509295565b634e487b7160e01b5f52602160045260245ffd5b8082028115828204841417620002dd57634e487b7160e01b5f52601160045260245ffd5b92915050565b5f82620002fe57634e487b7160e01b5f52601260045260245ffd5b500490565b60608101600385106200032457634e487b7160e01b5f52602160045260245ffd5b938152602081019290925260409091015290565b610def80620003465f395ff3fe608060405260043610610100575f3560e01c8063a12e2dd611610094578063da267bc811610063578063da267bc814610328578063db9d1e411461033c578063de5695011461035b578063e97bef0e1461037a578063f6816b76146103a557610152565b8063a12e2dd6146102b7578063a5b68a62146102cb578063c6eb5980146102ea578063c8a27b051461031557610152565b80635f515226116100d05780635f5152261461021c5780636354a76c146102515780636f9fb98a1461026f5780637cfd4a921461028157610152565b80627fa4f01461019a5780631d581402146101bb5780631e31a6dd146101da5780633125f885146101ee57610152565b366101525760405162461bcd60e51b815260206004820152601f60248201527f506c6561736520757365206d616b655061796d656e742066756e6374696f6e0060448201526064015b60405180910390fd5b60405162461bcd60e51b815260206004820152601c60248201527f446972656374207472616e7366657273206e6f7420616c6c6f776564000000006044820152606401610149565b3480156101a5575f80fd5b506101b96101b4366004610c2b565b6103c4565b005b3480156101c6575f80fd5b506101b96101d5366004610c53565b6103fb565b3480156101e5575f80fd5b506101b96104d0565b3480156101f9575f80fd5b506005546102079060ff1681565b60405190151581526020015b60405180910390f35b348015610227575f80fd5b50610243610236366004610c53565b6001600160a01b03163190565b604051908152602001610213565b34801561025c575f80fd5b5060055461020790610100900460ff1681565b34801561027a575f80fd5b5047610243565b34801561028c575f80fd5b505f5461029f906001600160a01b031681565b6040516001600160a01b039091168152602001610213565b3480156102c2575f80fd5b50610243601481565b3480156102d6575f80fd5b5060025461029f906001600160a01b031681565b3480156102f5575f80fd5b50610243610304366004610c80565b60036020525f908152604090205481565b6101b9610323366004610c80565b61059a565b348015610333575f80fd5b50610243600a81565b348015610347575f80fd5b506101b9610356366004610c53565b6108b7565b348015610366575f80fd5b506101b9610375366004610c53565b610953565b348015610385575f80fd5b50610243610394366004610c80565b60046020525f908152604090205481565b3480156103b0575f80fd5b5060015461029f906001600160a01b031681565b5f546001600160a01b031633146103ed5760405162461bcd60e51b815260040161014990610c99565b6103f782826109f0565b5050565b6001546001600160a01b031633146104555760405162461bcd60e51b815260206004820152601860248201527f4f6e6c792044354172742061646d696e20616c6c6f77656400000000000000006044820152606401610149565b6001600160a01b03811661047b5760405162461bcd60e51b815260040161014990610cc9565b600180546001600160a01b0319166001600160a01b0383169081179091556040519081527fa15f1ff3a51ba5c624d71f26f2fbd15b1ee0f313cd9f1c30be31c698935d65ea906020015b60405180910390a150565b5f546001600160a01b03163314806104f257506001546001600160a01b031633145b61052d5760405162461bcd60e51b815260206004820152600c60248201526b155b985d5d1a1bdc9a5e995960a21b6044820152606401610149565b5f546001600160a01b03163303610550576005805460ff19166001179055610572565b6001546001600160a01b03163303610572576005805461ff0019166101001790555b60055460ff16801561058b5750600554610100900460ff165b1561059857610598610ae7565b565b60045f8260028111156105af576105af610cf2565b60028111156105c0576105c0610cf2565b81526020019081526020015f2054341461061c5760405162461bcd60e51b815260206004820152601860248201527f496e636f7272656374207061796d656e7420616d6f756e7400000000000000006044820152606401610149565b7f7798236973338390ade9f2f68e3a8a56f1c35f2be34ce43073a8f1f5def4236f33348360405161064f93929190610d26565b60405180910390a15f6064601460035f85600281111561067157610671610cf2565b600281111561068257610682610cf2565b81526020019081526020015f205461069a9190610d52565b6106a49190610d7b565b90505f6064600a60035f8660028111156106c0576106c0610cf2565b60028111156106d1576106d1610cf2565b81526020019081526020015f20546106e99190610d52565b6106f39190610d7b565b6002546040519192505f916001600160a01b039091169084908381818185875af1925050503d805f8114610742576040519150601f19603f3d011682016040523d82523d5f602084013e610747565b606091505b505090508061078d5760405162461bcd60e51b81526020600482015260126024820152711295881d1c985b9cd9995c8819985a5b195960721b6044820152606401610149565b600254604080516001600160a01b039092168252602082018590527f885e6f6235626292940f78c947a331f4c7c1d7f50a48b38092cf546bc9c7907a910160405180910390a15f80546040516001600160a01b039091169084908381818185875af1925050503d805f811461081d576040519150601f19603f3d011682016040523d82523d5f602084013e610822565b606091505b505090508061086b5760405162461bcd60e51b8152602060048201526015602482015274109bdb9d5cc81d1c985b9cd9995c8819985a5b1959605a1b6044820152606401610149565b5f54604080516001600160a01b039092168252602082018590527f885e6f6235626292940f78c947a331f4c7c1d7f50a48b38092cf546bc9c7907a910160405180910390a15050505050565b5f546001600160a01b031633146108e05760405162461bcd60e51b815260040161014990610c99565b6001600160a01b0381166109065760405162461bcd60e51b815260040161014990610cc9565b5f80546001600160a01b0319166001600160a01b0383169081179091556040519081527fa3c698d36c3a412ab623d49aa22d6752329f35ce748bd2cd2d257e3add0f6cba906020016104c5565b5f546001600160a01b0316331461097c5760405162461bcd60e51b815260040161014990610c99565b6001600160a01b0381166109a25760405162461bcd60e51b815260040161014990610cc9565b600280546001600160a01b0319166001600160a01b0383169081179091556040519081527f34c4797eee453c4a55bfbebdaa19d9a01cf7880724a6e1aa0f20e931e6d71b38906020016104c5565b8060035f846002811115610a0657610a06610cf2565b6002811115610a1757610a17610cf2565b815260208101919091526040015f20556064610a3482605a610d52565b610a3e9190610d7b565b60045f846002811115610a5357610a53610cf2565b6002811115610a6457610a64610cf2565b81526020019081526020015f20819055507f0632454824820b4b1fd6f29fdc288d3b437e7ae937523b584eed6967b39e7595828260045f866002811115610aad57610aad610cf2565b6002811115610abe57610abe610cf2565b81526020019081526020015f2054604051610adb93929190610d9a565b60405180910390a15050565b4780610b2b5760405162461bcd60e51b81526020600482015260136024820152724e6f2066756e647320746f2072656c6561736560681b6044820152606401610149565b6001546040515f916001600160a01b03169083908381818185875af1925050503d805f8114610b75576040519150601f19603f3d011682016040523d82523d5f602084013e610b7a565b606091505b5050905080610bc35760405162461bcd60e51b8152602060048201526015602482015274110d585c9d081d1c985b9cd9995c8819985a5b1959605a1b6044820152606401610149565b600154604080516001600160a01b039092168252602082018490527f221c08a06b07a64803b3787861a3f276212fcccb51c2e6234077a9b8cb13047a910160405180910390a150506005805461ffff19169055565b803560038110610c26575f80fd5b919050565b5f8060408385031215610c3c575f80fd5b610c4583610c18565b946020939093013593505050565b5f60208284031215610c63575f80fd5b81356001600160a01b0381168114610c79575f80fd5b9392505050565b5f60208284031215610c90575f80fd5b610c7982610c18565b60208082526016908201527513db9b1e48135090c818591b5a5b88185b1b1bddd95960521b604082015260600190565b6020808252600f908201526e496e76616c6964206164647265737360881b604082015260600190565b634e487b7160e01b5f52602160045260245ffd5b60038110610d2257634e487b7160e01b5f52602160045260245ffd5b9052565b6001600160a01b03841681526020810183905260608101610d4a6040830184610d06565b949350505050565b8082028115828204841417610d7557634e487b7160e01b5f52601160045260245ffd5b92915050565b5f82610d9557634e487b7160e01b5f52601260045260245ffd5b500490565b60608101610da88286610d06565b60208201939093526040015291905056fea26469706673582212203ddcb4ba7541fb0f359c6ba61f563da192354083a18dcae43cf44a039566108664736f6c63430008150033",
  "immutableReferences": {},
  "source": "// SPDX-License-Identifier: MIT\r\npragma solidity ^0.8.0;\r\n\r\ncontract MBCPaymentSplitter {\r\n    address public MBC_ADMIN;\r\n    address public D5ART_ADMIN;\r\n    address public JV_WALLET; \r\n    \r\n    uint256 public constant JV_SPLIT_PERCENT = 20;\r\n    uint256 public constant BONUS_PERCENT = 10;\r\n    \r\n    enum PlanType { BASIC, STANDARD, PREMIUM }\r\n    \r\n    mapping(PlanType => uint256) public originalPrices;\r\n    mapping(PlanType => uint256) public concessionPrices;\r\n    \r\n    bool public mbcApproved;\r\n    bool public d5artApproved;\r\n    \r\n    event PaymentReceived(address payer, uint256 amount, PlanType plan);\r\n    event CommissionPaid(address to, uint256 amount);\r\n    event FundsReleased(address to, uint256 amount);\r\n    event MbcAdminUpdated(address newAdmin);\r\n    event D5artAdminUpdated(address newAdmin);\r\n    event JvWalletUpdated(address newWallet);\r\n    event PriceUpdated(PlanType plan, uint256 newOriginalPrice, uint256 newConcessionPrice);\r\n\r\n    modifier onlyMBCAdmin() {\r\n        require(msg.sender == MBC_ADMIN, \"Only MBC admin allowed\");\r\n        _;\r\n    }\r\n\r\n    modifier onlyD5ArtAdmin() {\r\n        require(msg.sender == D5ART_ADMIN, \"Only D5Art admin allowed\");\r\n        _;\r\n    }\r\n\r\n    modifier onlyParties() {\r\n        require(msg.sender == MBC_ADMIN || msg.sender == D5ART_ADMIN, \"Unauthorized\");\r\n        _; \r\n    }\r\n\r\n    constructor(\r\n        address _mbcAdmin,\r\n        address _d5artAdmin,\r\n        address _jvWallet,  \r\n        uint256 _basicPrice,\r\n        uint256 _standardPrice,\r\n        uint256 _premiumPrice\r\n    ) {\r\n        require(_mbcAdmin != address(0) && _d5artAdmin != address(0) && _jvWallet != address(0), \"Invalid addresses\");\r\n        MBC_ADMIN = _mbcAdmin;\r\n        D5ART_ADMIN = _d5artAdmin;\r\n        JV_WALLET = _jvWallet;\r\n\r\n        _setPrice(PlanType.BASIC, _basicPrice);\r\n        _setPrice(PlanType.STANDARD, _standardPrice);\r\n        _setPrice(PlanType.PREMIUM, _premiumPrice);\r\n    }\r\n\r\n    function makePayment(PlanType plan) external payable {\r\n        require(msg.value == concessionPrices[plan], \"Incorrect payment amount\");\r\n        \r\n        emit PaymentReceived(msg.sender, msg.value, plan);\r\n        \r\n        uint256 jvSplit = (originalPrices[plan] * JV_SPLIT_PERCENT) / 100;\r\n        uint256 bonusSplit = (originalPrices[plan] * BONUS_PERCENT) / 100;\r\n\r\n        (bool successJV, ) = JV_WALLET.call{value: jvSplit}(\"\");\r\n        require(successJV, \"JV transfer failed\");\r\n        emit CommissionPaid(JV_WALLET, jvSplit);\r\n\r\n        (bool successBonus, ) = MBC_ADMIN.call{value: bonusSplit}(\"\");\r\n        require(successBonus, \"Bonus transfer failed\");\r\n        emit CommissionPaid(MBC_ADMIN, bonusSplit);\r\n    }\r\n\r\n    function approveRelease() external onlyParties {\r\n        if (msg.sender == MBC_ADMIN) {\r\n            mbcApproved = true;\r\n        } else if (msg.sender == D5ART_ADMIN) {\r\n            d5artApproved = true;\r\n        }\r\n        \r\n        if (mbcApproved && d5artApproved) {\r\n            _releaseFunds();\r\n        }\r\n    }\r\n\r\n    function _releaseFunds() private {\r\n        uint256 d5artFinalShare = address(this).balance;\r\n        require(d5artFinalShare > 0, \"No funds to release\");\r\n\r\n        (bool success2, ) = D5ART_ADMIN.call{value: d5artFinalShare}(\"\");\r\n        require(success2, \"D5art transfer failed\");\r\n\r\n        emit FundsReleased(D5ART_ADMIN, d5artFinalShare);\r\n\r\n        mbcApproved = false;\r\n        d5artApproved = false;\r\n    }\r\n\r\n    // --- Admin Controls ---\r\n\r\n    function updateMbcAdmin(address newAdmin) external onlyMBCAdmin {\r\n        require(newAdmin != address(0), \"Invalid address\");\r\n        MBC_ADMIN = newAdmin;\r\n        emit MbcAdminUpdated(newAdmin);\r\n    }\r\n\r\n    function updateD5artAdmin(address newAdmin) external onlyD5ArtAdmin {\r\n        require(newAdmin != address(0), \"Invalid address\");\r\n        D5ART_ADMIN = newAdmin;\r\n        emit D5artAdminUpdated(newAdmin);\r\n    }\r\n\r\n    function updateJvWallet(address newWallet) external onlyMBCAdmin {\r\n        require(newWallet != address(0), \"Invalid address\");\r\n        JV_WALLET = newWallet;\r\n        emit JvWalletUpdated(newWallet);\r\n    }\r\n\r\n    function updatePrice(PlanType plan, uint256 newPrice) external onlyMBCAdmin {\r\n        _setPrice(plan, newPrice);\r\n    }\r\n\r\n    function _setPrice(PlanType plan, uint256 price) internal {\r\n        originalPrices[plan] = price;\r\n        concessionPrices[plan] = (price * 90) / 100;\r\n        emit PriceUpdated(plan, price, concessionPrices[plan]);\r\n    }\r\n\r\n    // --- Utilities ---\r\n    function getContractBalance() public view returns (uint256) {\r\n        return address(this).balance;\r\n    }\r\n\r\n    function checkBalance(address _address) public view returns (uint256) {\r\n        return _address.balance;\r\n    }\r\n\r\n    fallback() external payable {\r\n        revert(\"Direct transfers not allowed\");\r\n    }\r\n\r\n    receive() external payable {\r\n        revert(\"Please use makePayment function\");\r\n    }\r\n}\r\n",
  "sourcePath": "D:\\MBCxD5art\\contracts\\MBCpaymentSplitter.sol",
  "compiler": {
    "name": "solc",
    "version": "0.8.21+commit.d9974bed.Emscripten.clang"
  },
  "schemaVersion": "3.4.16",
  "updatedAt": "2025-06-25T12:18:40.861Z",
  "devdoc": {
    "kind": "dev",
    "methods": {},
    "version": 1
  },
  "userdoc": {
    "kind": "user",
    "methods": {},
    "version": 1
  }
}