{
  "contractName": "MBCPaymentSplitter",
  "abi": [
    {
      "inputs": [
        {
          "internalType": "address",
          "name": "_mbcAdmin",
          "type": "address"
        },
        {
          "internalType": "address",
          "name": "_d5artAdmin",
          "type": "address"
        },
        {
          "internalType": "address",
          "name": "_d5artsubAdmin",
          "type": "address"
        },
        {
          "internalType": "address",
          "name": "_jvWallet",
          "type": "address"
        },
        {
          "internalType": "uint256",
          "name": "_basicPrice",
          "type": "uint256"
        },
        {
          "internalType": "uint256",
          "name": "_standardPrice",
          "type": "uint256"
        },
        {
          "internalType": "uint256",
          "name": "_premiumPrice",
          "type": "uint256"
        }
      ],
      "stateMutability": "nonpayable",
      "type": "constructor"
    },
    {
      "anonymous": false,
      "inputs": [
        {
          "indexed": false,
          "internalType": "address",
          "name": "to",
          "type": "address"
        },
        {
          "indexed": false,
          "internalType": "uint256",
          "name": "amount",
          "type": "uint256"
        }
      ],
      "name": "CommissionPaid",
      "type": "event"
    },
    {
      "anonymous": false,
      "inputs": [
        {
          "indexed": false,
          "internalType": "address",
          "name": "newAdmin",
          "type": "address"
        }
      ],
      "name": "D5artAdminUpdated",
      "type": "event"
    },
    {
      "anonymous": false,
      "inputs": [
        {
          "indexed": false,
          "internalType": "address",
          "name": "new_subAdmin",
          "type": "address"
        }
      ],
      "name": "D5art_subAdminUpdated",
      "type": "event"
    },
    {
      "anonymous": false,
      "inputs": [
        {
          "indexed": false,
          "internalType": "address",
          "name": "to",
          "type": "address"
        },
        {
          "indexed": false,
          "internalType": "uint256",
          "name": "amount",
          "type": "uint256"
        }
      ],
      "name": "FundsReleased",
      "type": "event"
    },
    {
      "anonymous": false,
      "inputs": [
        {
          "indexed": false,
          "internalType": "address",
          "name": "newWallet",
          "type": "address"
        }
      ],
      "name": "JvWalletUpdated",
      "type": "event"
    },
    {
      "anonymous": false,
      "inputs": [
        {
          "indexed": false,
          "internalType": "address",
          "name": "newAdmin",
          "type": "address"
        }
      ],
      "name": "MbcAdminUpdated",
      "type": "event"
    },
    {
      "anonymous": false,
      "inputs": [
        {
          "indexed": false,
          "internalType": "address",
          "name": "payer",
          "type": "address"
        },
        {
          "indexed": false,
          "internalType": "uint256",
          "name": "amount",
          "type": "uint256"
        },
        {
          "indexed": false,
          "internalType": "enum MBCPaymentSplitter.PlanType",
          "name": "plan",
          "type": "uint8"
        }
      ],
      "name": "PaymentReceived",
      "type": "event"
    },
    {
      "anonymous": false,
      "inputs": [
        {
          "indexed": false,
          "internalType": "enum MBCPaymentSplitter.PlanType",
          "name": "plan",
          "type": "uint8"
        },
        {
          "indexed": false,
          "internalType": "uint256",
          "name": "newOriginalPrice",
          "type": "uint256"
        },
        {
          "indexed": false,
          "internalType": "uint256",
          "name": "newConcessionPrice",
          "type": "uint256"
        }
      ],
      "name": "PriceUpdated",
      "type": "event"
    },
    {
      "stateMutability": "payable",
      "type": "fallback",
      "payable": true
    },
    {
      "inputs": [],
      "name": "BONUS_PERCENT",
      "outputs": [
        {
          "internalType": "uint256",
          "name": "",
          "type": "uint256"
        }
      ],
      "stateMutability": "view",
      "type": "function",
      "constant": true
    },
    {
      "inputs": [],
      "name": "D5ART_ADMIN",
      "outputs": [
        {
          "internalType": "address",
          "name": "",
          "type": "address"
        }
      ],
      "stateMutability": "view",
      "type": "function",
      "constant": true
    },
    {
      "inputs": [],
      "name": "D5ART_SUBADMIN",
      "outputs": [
        {
          "internalType": "address",
          "name": "",
          "type": "address"
        }
      ],
      "stateMutability": "view",
      "type": "function",
      "constant": true
    },
    {
      "inputs": [],
      "name": "JV_SPLIT_PERCENT",
      "outputs": [
        {
          "internalType": "uint256",
          "name": "",
          "type": "uint256"
        }
      ],
      "stateMutability": "view",
      "type": "function",
      "constant": true
    },
    {
      "inputs": [],
      "name": "JV_WALLET",
      "outputs": [
        {
          "internalType": "address",
          "name": "",
          "type": "address"
        }
      ],
      "stateMutability": "view",
      "type": "function",
      "constant": true
    },
    {
      "inputs": [],
      "name": "MBC_ADMIN",
      "outputs": [
        {
          "internalType": "address",
          "name": "",
          "type": "address"
        }
      ],
      "stateMutability": "view",
      "type": "function",
      "constant": true
    },
    {
      "inputs": [],
      "name": "PRECISION",
      "outputs": [
        {
          "internalType": "uint256",
          "name": "",
          "type": "uint256"
        }
      ],
      "stateMutability": "view",
      "type": "function",
      "constant": true
    },
    {
      "inputs": [
        {
          "internalType": "enum MBCPaymentSplitter.PlanType",
          "name": "",
          "type": "uint8"
        }
      ],
      "name": "concessionPrices",
      "outputs": [
        {
          "internalType": "uint256",
          "name": "",
          "type": "uint256"
        }
      ],
      "stateMutability": "view",
      "type": "function",
      "constant": true
    },
    {
      "inputs": [],
      "name": "d5ar_AdmintApproved",
      "outputs": [
        {
          "internalType": "bool",
          "name": "",
          "type": "bool"
        }
      ],
      "stateMutability": "view",
      "type": "function",
      "constant": true
    },
    {
      "inputs": [],
      "name": "d5art_subAdminApproved",
      "outputs": [
        {
          "internalType": "bool",
          "name": "",
          "type": "bool"
        }
      ],
      "stateMutability": "view",
      "type": "function",
      "constant": true
    },
    {
      "inputs": [
        {
          "internalType": "enum MBCPaymentSplitter.PlanType",
          "name": "",
          "type": "uint8"
        }
      ],
      "name": "originalPrices",
      "outputs": [
        {
          "internalType": "uint256",
          "name": "",
          "type": "uint256"
        }
      ],
      "stateMutability": "view",
      "type": "function",
      "constant": true
    },
    {
      "stateMutability": "payable",
      "type": "receive",
      "payable": true
    },
    {
      "inputs": [
        {
          "internalType": "enum MBCPaymentSplitter.PlanType",
          "name": "plan",
          "type": "uint8"
        }
      ],
      "name": "makePayment",
      "outputs": [],
      "stateMutability": "payable",
      "type": "function",
      "payable": true
    },
    {
      "inputs": [],
      "name": "approveRelease",
      "outputs": [],
      "stateMutability": "nonpayable",
      "type": "function"
    },
    {
      "inputs": [
        {
          "internalType": "address",
          "name": "newAdmin",
          "type": "address"
        }
      ],
      "name": "updateMbcAdmin",
      "outputs": [],
      "stateMutability": "nonpayable",
      "type": "function"
    },
    {
      "inputs": [
        {
          "internalType": "address",
          "name": "newAdmin",
          "type": "address"
        }
      ],
      "name": "updateD5artAdmin",
      "outputs": [],
      "stateMutability": "nonpayable",
      "type": "function"
    },
    {
      "inputs": [
        {
          "internalType": "address",
          "name": "new_subAdmin",
          "type": "address"
        }
      ],
      "name": "updateD5art_subAdmin",
      "outputs": [],
      "stateMutability": "nonpayable",
      "type": "function"
    },
    {
      "inputs": [
        {
          "internalType": "address",
          "name": "newWallet",
          "type": "address"
        }
      ],
      "name": "updateJvWallet",
      "outputs": [],
      "stateMutability": "nonpayable",
      "type": "function"
    },
    {
      "inputs": [
        {
          "internalType": "enum MBCPaymentSplitter.PlanType",
          "name": "plan",
          "type": "uint8"
        },
        {
          "internalType": "uint256",
          "name": "newPrice",
          "type": "uint256"
        }
      ],
      "name": "updatePrice",
      "outputs": [],
      "stateMutability": "nonpayable",
      "type": "function"
    },
    {
      "inputs": [],
      "name": "getContractBalance",
      "outputs": [
        {
          "internalType": "uint256",
          "name": "",
          "type": "uint256"
        }
      ],
      "stateMutability": "view",
      "type": "function",
      "constant": true
    }
  ],
  "bytecode": "0x60806040523480156200001157600080fd5b5060405162001977380380620019778339810160408190526200003491620002ab565b600160a060020a03871615801590620000555750600160a060020a03861615155b80156200006a5750600160a060020a03841615155b620000d5576040517f08c379a000000000000000000000000000000000000000000000000000000000815260206004820152601160248201527f496e76616c696420616464726573736573000000000000000000000000000000604482015260640160405180910390fd5b60008054600160a060020a03808a16600160a060020a0319928316178355600180548a831690841617905560028054898316908416179055600380549188169190921617905562000130908464010000000062000169810204565b6200014660018364010000000062000169810204565b6200015c60028264010000000062000169810204565b5050505050505062000445565b806004600084600281111562000183576200018362000325565b600281111562000197576200019762000325565b8152602081019190915260400160002055620f4240620001bb620186a08262000383565b620001c790836200039f565b620001d39190620003b9565b60056000846002811115620001ec57620001ec62000325565b600281111562000200576200020062000325565b8152602001908152602001600020819055507f0632454824820b4b1fd6f29fdc288d3b437e7ae937523b584eed6967b39e75958282600560008660028111156200024e576200024e62000325565b600281111562000262576200026262000325565b8152602001908152602001600020546040516200028293929190620003f5565b60405180910390a15050565b8051600160a060020a0381168114620002a657600080fd5b919050565b600080600080600080600060e0888a031215620002c757600080fd5b620002d2886200028e565b9650620002e2602089016200028e565b9550620002f2604089016200028e565b945062000302606089016200028e565b93506080880151925060a0880151915060c0880151905092959891949750929550565b7f4e487b7100000000000000000000000000000000000000000000000000000000600052602160045260246000fd5b7f4e487b7100000000000000000000000000000000000000000000000000000000600052601160045260246000fd5b8181038181111562000399576200039962000354565b92915050565b808202811582820484141762000399576200039962000354565b600082620003f0577f4e487b7100000000000000000000000000000000000000000000000000000000600052601260045260246000fd5b500490565b606081016003851062000431577f4e487b7100000000000000000000000000000000000000000000000000000000600052602160045260246000fd5b938152602081019290925260409091015290565b61152280620004556000396000f3fe608060405260043610610164576000357c010000000000000000000000000000000000000000000000000000000090048063aaf5eb68116100dd578063db9d1e4111610091578063e97bef0e11610076578063e97bef0e14610459578063f6816b7614610486578063f8aa6ba2146104b3576101d0565b8063db9d1e4114610419578063de56950114610439576101d0565b8063c8a27b05116100c2578063c8a27b05146103d0578063d4b03f5f146103e3578063da267bc814610402576101d0565b8063aaf5eb681461038c578063c6eb5980146103a3576101d0565b80634d589e80116101345780637cfd4a92116101195780637cfd4a92146102f6578063a12e2dd614610348578063a5b68a621461035f576101d0565b80634d589e80146102a95780636f9fb98a146102d8576101d0565b80627fa4f014610232578063135b0771146102545780631d581402146102745780631e31a6dd14610294576101d0565b366101d0576040517f08c379a000000000000000000000000000000000000000000000000000000000815260206004820152601f60248201527f506c6561736520757365206d616b655061796d656e742066756e6374696f6e0060448201526064015b60405180910390fd5b6040517f08c379a000000000000000000000000000000000000000000000000000000000815260206004820152601c60248201527f446972656374207472616e7366657273206e6f7420616c6c6f7765640000000060448201526064016101c7565b34801561023e57600080fd5b5061025261024d36600461130e565b6104e0565b005b34801561026057600080fd5b5061025261026f366004611338565b61056f565b34801561028057600080fd5b5061025261028f366004611338565b6106dc565b3480156102a057600080fd5b50610252610842565b3480156102b557600080fd5b506006546102c39060ff1681565b60405190151581526020015b60405180910390f35b3480156102e457600080fd5b5030315b6040519081526020016102cf565b34801561030257600080fd5b506000546103239073ffffffffffffffffffffffffffffffffffffffff1681565b60405173ffffffffffffffffffffffffffffffffffffffff90911681526020016102cf565b34801561035457600080fd5b506102e862030d4081565b34801561036b57600080fd5b506003546103239073ffffffffffffffffffffffffffffffffffffffff1681565b34801561039857600080fd5b506102e8620f424081565b3480156103af57600080fd5b506102e86103be366004611375565b60046020526000908152604090205481565b6102526103de366004611375565b6109a8565b3480156103ef57600080fd5b506006546102c390610100900460ff1681565b34801561040e57600080fd5b506102e8620186a081565b34801561042557600080fd5b50610252610434366004611338565b610d71565b34801561044557600080fd5b50610252610454366004611338565b610ed7565b34801561046557600080fd5b506102e8610474366004611375565b60056020526000908152604090205481565b34801561049257600080fd5b506001546103239073ffffffffffffffffffffffffffffffffffffffff1681565b3480156104bf57600080fd5b506002546103239073ffffffffffffffffffffffffffffffffffffffff1681565b60005473ffffffffffffffffffffffffffffffffffffffff163314610561576040517f08c379a000000000000000000000000000000000000000000000000000000000815260206004820152601660248201527f4f6e6c79204d42432061646d696e20616c6c6f7765640000000000000000000060448201526064016101c7565b61056b828261103d565b5050565b60015473ffffffffffffffffffffffffffffffffffffffff1633146105f0576040517f08c379a000000000000000000000000000000000000000000000000000000000815260206004820152601860248201527f4f6e6c792044354172742061646d696e20616c6c6f776564000000000000000060448201526064016101c7565b73ffffffffffffffffffffffffffffffffffffffff811661066d576040517f08c379a000000000000000000000000000000000000000000000000000000000815260206004820152600f60248201527f496e76616c69642061646472657373000000000000000000000000000000000060448201526064016101c7565b6002805473ffffffffffffffffffffffffffffffffffffffff191673ffffffffffffffffffffffffffffffffffffffff83169081179091556040519081527ffa3d6b84ed4777f63a38853dcd99d75d5baf7227823e4f0b8f9b4d49d2ed429d906020015b60405180910390a150565b60015473ffffffffffffffffffffffffffffffffffffffff16331461075d576040517f08c379a000000000000000000000000000000000000000000000000000000000815260206004820152601860248201527f4f6e6c792044354172742061646d696e20616c6c6f776564000000000000000060448201526064016101c7565b73ffffffffffffffffffffffffffffffffffffffff81166107da576040517f08c379a000000000000000000000000000000000000000000000000000000000815260206004820152600f60248201527f496e76616c69642061646472657373000000000000000000000000000000000060448201526064016101c7565b6001805473ffffffffffffffffffffffffffffffffffffffff191673ffffffffffffffffffffffffffffffffffffffff83169081179091556040519081527fa15f1ff3a51ba5c624d71f26f2fbd15b1ee0f313cd9f1c30be31c698935d65ea906020016106d1565b60025473ffffffffffffffffffffffffffffffffffffffff1633148061087f575060015473ffffffffffffffffffffffffffffffffffffffff1633145b6108e5576040517f08c379a000000000000000000000000000000000000000000000000000000000815260206004820152600c60248201527f556e617574686f72697a6564000000000000000000000000000000000000000060448201526064016101c7565b60025473ffffffffffffffffffffffffffffffffffffffff16330361093457600680547fffffffffffffffffffffffffffffffffffffffffffffffffffffffffffffff00166001179055610980565b60015473ffffffffffffffffffffffffffffffffffffffff16330361098057600680547fffffffffffffffffffffffffffffffffffffffffffffffffffffffffffff00ff166101001790555b60065460ff1680156109995750600654610100900460ff165b156109a6576109a6611148565b565b600560008260028111156109be576109be611390565b60028111156109cf576109cf611390565b8152602001908152602001600020543414610a46576040517f08c379a000000000000000000000000000000000000000000000000000000000815260206004820152601860248201527f496e636f7272656374207061796d656e7420616d6f756e74000000000000000060448201526064016101c7565b7f7798236973338390ade9f2f68e3a8a56f1c35f2be34ce43073a8f1f5def4236f333483604051610a79939291906113fa565b60405180910390a16000620f424062030d4060046000856002811115610aa157610aa1611390565b6002811115610ab257610ab2611390565b815260200190815260200160002054610acb9190611462565b610ad5919061147f565b90506000620f4240620186a060046000866002811115610af757610af7611390565b6002811115610b0857610b08611390565b815260200190815260200160002054610b219190611462565b610b2b919061147f565b60035460405191925060009173ffffffffffffffffffffffffffffffffffffffff9091169084908381818185875af1925050503d8060008114610b8a576040519150601f19603f3d011682016040523d82523d6000602084013e610b8f565b606091505b5050905080610bfa576040517f08c379a000000000000000000000000000000000000000000000000000000000815260206004820152601260248201527f4a56207472616e73666572206661696c6564000000000000000000000000000060448201526064016101c7565b6003546040805173ffffffffffffffffffffffffffffffffffffffff9092168252602082018590527f885e6f6235626292940f78c947a331f4c7c1d7f50a48b38092cf546bc9c7907a910160405180910390a16000805460405173ffffffffffffffffffffffffffffffffffffffff9091169084908381818185875af1925050503d8060008114610ca7576040519150601f19603f3d011682016040523d82523d6000602084013e610cac565b606091505b5050905080610d17576040517f08c379a000000000000000000000000000000000000000000000000000000000815260206004820152601560248201527f426f6e7573207472616e73666572206661696c6564000000000000000000000060448201526064016101c7565b6000546040805173ffffffffffffffffffffffffffffffffffffffff9092168252602082018590527f885e6f6235626292940f78c947a331f4c7c1d7f50a48b38092cf546bc9c7907a910160405180910390a15050505050565b60005473ffffffffffffffffffffffffffffffffffffffff163314610df2576040517f08c379a000000000000000000000000000000000000000000000000000000000815260206004820152601660248201527f4f6e6c79204d42432061646d696e20616c6c6f7765640000000000000000000060448201526064016101c7565b73ffffffffffffffffffffffffffffffffffffffff8116610e6f576040517f08c379a000000000000000000000000000000000000000000000000000000000815260206004820152600f60248201527f496e76616c69642061646472657373000000000000000000000000000000000060448201526064016101c7565b6000805473ffffffffffffffffffffffffffffffffffffffff191673ffffffffffffffffffffffffffffffffffffffff83169081179091556040519081527fa3c698d36c3a412ab623d49aa22d6752329f35ce748bd2cd2d257e3add0f6cba906020016106d1565b60005473ffffffffffffffffffffffffffffffffffffffff163314610f58576040517f08c379a000000000000000000000000000000000000000000000000000000000815260206004820152601660248201527f4f6e6c79204d42432061646d696e20616c6c6f7765640000000000000000000060448201526064016101c7565b73ffffffffffffffffffffffffffffffffffffffff8116610fd5576040517f08c379a000000000000000000000000000000000000000000000000000000000815260206004820152600f60248201527f496e76616c69642061646472657373000000000000000000000000000000000060448201526064016101c7565b6003805473ffffffffffffffffffffffffffffffffffffffff191673ffffffffffffffffffffffffffffffffffffffff83169081179091556040519081527f34c4797eee453c4a55bfbebdaa19d9a01cf7880724a6e1aa0f20e931e6d71b38906020016106d1565b806004600084600281111561105457611054611390565b600281111561106557611065611390565b8152602081019190915260400160002055620f4240611087620186a0826114ba565b6110919083611462565b61109b919061147f565b600560008460028111156110b1576110b1611390565b60028111156110c2576110c2611390565b8152602001908152602001600020819055507f0632454824820b4b1fd6f29fdc288d3b437e7ae937523b584eed6967b39e759582826005600086600281111561110d5761110d611390565b600281111561111e5761111e611390565b81526020019081526020016000205460405161113c939291906114cd565b60405180910390a15050565b3031806111b1576040517f08c379a000000000000000000000000000000000000000000000000000000000815260206004820152601360248201527f4e6f2066756e647320746f2072656c656173650000000000000000000000000060448201526064016101c7565b60015460405160009173ffffffffffffffffffffffffffffffffffffffff169083908381818185875af1925050503d806000811461120b576040519150601f19603f3d011682016040523d82523d6000602084013e611210565b606091505b505090508061127b576040517f08c379a000000000000000000000000000000000000000000000000000000000815260206004820152601560248201527f4435617274207472616e73666572206661696c6564000000000000000000000060448201526064016101c7565b6001546040805173ffffffffffffffffffffffffffffffffffffffff9092168252602082018490527f221c08a06b07a64803b3787861a3f276212fcccb51c2e6234077a9b8cb13047a910160405180910390a15050600680547fffffffffffffffffffffffffffffffffffffffffffffffffffffffffffff0000169055565b80356003811061130957600080fd5b919050565b6000806040838503121561132157600080fd5b61132a836112fa565b946020939093013593505050565b60006020828403121561134a57600080fd5b813573ffffffffffffffffffffffffffffffffffffffff8116811461136e57600080fd5b9392505050565b60006020828403121561138757600080fd5b61136e826112fa565b7f4e487b7100000000000000000000000000000000000000000000000000000000600052602160045260246000fd5b600381106113f6577f4e487b7100000000000000000000000000000000000000000000000000000000600052602160045260246000fd5b9052565b73ffffffffffffffffffffffffffffffffffffffff84168152602081018390526060810161142b60408301846113bf565b949350505050565b7f4e487b7100000000000000000000000000000000000000000000000000000000600052601160045260246000fd5b808202811582820484141761147957611479611433565b92915050565b6000826114b5577f4e487b7100000000000000000000000000000000000000000000000000000000600052601260045260246000fd5b500490565b8181038181111561147957611479611433565b606081016114db82866113bf565b60208201939093526040015291905056fea2646970667358221220aaf6fbf513a4d959d289441e962ea7a8cbe8024ad40b9ac07bc6f40907ab916664736f6c63430008160033",
  "immutableReferences": {},
  "source": "// SPDX-License-Identifier: MIT\r\npragma solidity ^0.8.0;\r\n\r\ncontract MBCPaymentSplitter {\r\n    uint256 public constant PRECISION = 1e6; // Precision factor for \"floats\"\r\n    \r\n    address public MBC_ADMIN;\r\n    address public D5ART_ADMIN;\r\n    address public D5ART_SUBADMIN;\r\n    address public JV_WALLET;\r\n\r\n    // Percentages expressed in fixed-point format (e.g., 20% = 0.2 * 1e6 = 200000)\r\n    uint256 public constant JV_SPLIT_PERCENT = 200000; // 20% = 0.2\r\n    uint256 public constant BONUS_PERCENT = 100000;    // 10% = 0.1\r\n\r\n    enum PlanType { BASIC, STANDARD, PREMIUM }\r\n\r\n    mapping(PlanType => uint256) public originalPrices;\r\n    mapping(PlanType => uint256) public concessionPrices;\r\n\r\n    bool public d5art_subAdminApproved;\r\n    bool public d5ar_AdmintApproved;\r\n\r\n    event PaymentReceived(address payer, uint256 amount, PlanType plan);\r\n    event CommissionPaid(address to, uint256 amount);\r\n    event FundsReleased(address to, uint256 amount);\r\n    event MbcAdminUpdated(address newAdmin);\r\n    event D5artAdminUpdated(address newAdmin);\r\n    event D5art_subAdminUpdated(address new_subAdmin);\r\n    event JvWalletUpdated(address newWallet);\r\n    event PriceUpdated(PlanType plan, uint256 newOriginalPrice, uint256 newConcessionPrice);\r\n\r\n    modifier onlyMBCAdmin() {\r\n        require(msg.sender == MBC_ADMIN, \"Only MBC admin allowed\");\r\n        _;\r\n    }\r\n\r\n    modifier onlyD5ArtAdmin() {\r\n        require(msg.sender == D5ART_ADMIN, \"Only D5Art admin allowed\");\r\n        _;\r\n    }\r\n\r\n    modifier onlyParties() {\r\n        require(msg.sender == D5ART_SUBADMIN || msg.sender == D5ART_ADMIN, \"Unauthorized\");\r\n        _; \r\n    }\r\n\r\n    constructor(\r\n        address _mbcAdmin,\r\n        address _d5artAdmin,\r\n        address _d5artsubAdmin,\r\n        address _jvWallet,  \r\n        uint256 _basicPrice,\r\n        uint256 _standardPrice,\r\n        uint256 _premiumPrice\r\n    ) {\r\n        require(_mbcAdmin != address(0) && _d5artAdmin != address(0) && _jvWallet != address(0), \"Invalid addresses\");\r\n        MBC_ADMIN = _mbcAdmin;\r\n        D5ART_ADMIN = _d5artAdmin;\r\n        D5ART_SUBADMIN = _d5artsubAdmin;\r\n        JV_WALLET = _jvWallet;\r\n\r\n        _setPrice(PlanType.BASIC, _basicPrice);\r\n        _setPrice(PlanType.STANDARD, _standardPrice);\r\n        _setPrice(PlanType.PREMIUM, _premiumPrice);\r\n    }\r\n\r\n    function makePayment(PlanType plan) external payable {\r\n        require(msg.value == concessionPrices[plan], \"Incorrect payment amount\");\r\n        \r\n        emit PaymentReceived(msg.sender, msg.value, plan);\r\n        \r\n        uint256 jvSplit = (originalPrices[plan] * JV_SPLIT_PERCENT) / PRECISION;\r\n        uint256 bonusSplit = (originalPrices[plan] * BONUS_PERCENT) / PRECISION;\r\n\r\n        (bool successJV, ) = JV_WALLET.call{value: jvSplit}(\"\");\r\n        require(successJV, \"JV transfer failed\");\r\n        emit CommissionPaid(JV_WALLET, jvSplit);\r\n\r\n        (bool successBonus, ) = MBC_ADMIN.call{value: bonusSplit}(\"\");\r\n        require(successBonus, \"Bonus transfer failed\");\r\n        emit CommissionPaid(MBC_ADMIN, bonusSplit);\r\n    }\r\n\r\n    function approveRelease() external onlyParties {\r\n        if (msg.sender == D5ART_SUBADMIN) {\r\n            d5art_subAdminApproved = true;\r\n        } else if (msg.sender == D5ART_ADMIN) {\r\n            d5ar_AdmintApproved = true;\r\n        }\r\n        \r\n        if (d5art_subAdminApproved && d5ar_AdmintApproved) {\r\n            _releaseFunds();\r\n        }\r\n    }\r\n\r\n    function _releaseFunds() private {\r\n        uint256 d5artFinalShare = address(this).balance;\r\n        require(d5artFinalShare > 0, \"No funds to release\");\r\n\r\n        (bool success2, ) = D5ART_ADMIN.call{value: d5artFinalShare}(\"\");\r\n        require(success2, \"D5art transfer failed\");\r\n\r\n        emit FundsReleased(D5ART_ADMIN, d5artFinalShare);\r\n\r\n        d5art_subAdminApproved = false;\r\n        d5ar_AdmintApproved = false;\r\n    }\r\n\r\n    // --- Admin Controls ---\r\n\r\n    function updateMbcAdmin(address newAdmin) external onlyMBCAdmin {\r\n        require(newAdmin != address(0), \"Invalid address\");\r\n        MBC_ADMIN = newAdmin;\r\n        emit MbcAdminUpdated(newAdmin);\r\n    }\r\n\r\n    function updateD5artAdmin(address newAdmin) external onlyD5ArtAdmin {\r\n        require(newAdmin != address(0), \"Invalid address\");\r\n        D5ART_ADMIN = newAdmin;\r\n        emit D5artAdminUpdated(newAdmin);\r\n    }\r\n\r\n    function updateD5art_subAdmin( address new_subAdmin) external onlyD5ArtAdmin {\r\n        require(new_subAdmin != address(0), \"Invalid address\");\r\n        D5ART_SUBADMIN = new_subAdmin;\r\n        emit D5art_subAdminUpdated(new_subAdmin);\r\n    }\r\n\r\n    function updateJvWallet(address newWallet) external onlyMBCAdmin {\r\n        require(newWallet != address(0), \"Invalid address\");\r\n        JV_WALLET = newWallet;\r\n        emit JvWalletUpdated(newWallet);\r\n    }\r\n\r\n    function updatePrice(PlanType plan, uint256 newPrice) external onlyMBCAdmin {\r\n        _setPrice(plan, newPrice);\r\n    }\r\n\r\n    function _setPrice(PlanType plan, uint256 price) internal {\r\n        originalPrices[plan] = price;\r\n        concessionPrices[plan] = (price * (PRECISION - BONUS_PERCENT)) / PRECISION;\r\n        emit PriceUpdated(plan, price, concessionPrices[plan]);\r\n    }\r\n\r\n    // --- Utilities ---\r\n    function getContractBalance() public view returns (uint256) {\r\n        return address(this).balance;\r\n    }\r\n\r\n\r\n    fallback() external payable {\r\n        revert(\"Direct transfers not allowed\");\r\n    }\r\n\r\n    receive() external payable {\r\n        revert(\"Please use makePayment function\");\r\n    }\r\n}\r\n",
  "sourcePath": "D:\\MBCxD5art\\contracts\\MBCpaymentSplitter.sol",
  "compiler": {
    "name": "solc",
    "version": "0.8.22+commit.4fc1097e.Emscripten.clang"
  },
  "schemaVersion": "3.4.16",
  "updatedAt": "2025-06-27T06:51:31.269Z",
  "networkType": "ethereum",
  "devdoc": {
    "kind": "dev",
    "methods": {},
    "version": 1
  },
  "userdoc": {
    "kind": "user",
    "methods": {},
    "version": 1
  }
}